{
  "_format": "hh-sol-artifact-1",
  "contractName": "InternalFuncTest",
  "sourceName": "contracts/test/InternalFuncTest.sol",
  "abi": [
    {
      "inputs": [],
      "stateMutability": "nonpayable",
      "type": "constructor"
    },
    {
      "inputs": [],
      "name": "InvalidAddress",
      "type": "error"
    },
    {
      "inputs": [],
      "name": "InvalidArguments",
      "type": "error"
    },
    {
      "inputs": [],
      "name": "NonStandardAmm",
      "type": "error"
    },
    {
      "inputs": [],
      "name": "NotProfitable",
      "type": "error"
    },
    {
      "inputs": [],
      "name": "WrongResult",
      "type": "error"
    },
    {
      "anonymous": false,
      "inputs": [
        {
          "indexed": true,
          "internalType": "address",
          "name": "previousOwner",
          "type": "address"
        },
        {
          "indexed": true,
          "internalType": "address",
          "name": "newOwner",
          "type": "address"
        }
      ],
      "name": "OwnershipTransferred",
      "type": "event"
    },
    {
      "stateMutability": "nonpayable",
      "type": "fallback"
    },
    {
      "inputs": [
        {
          "components": [
            {
              "internalType": "uint256",
              "name": "a1",
              "type": "uint256"
            },
            {
              "internalType": "uint256",
              "name": "b1",
              "type": "uint256"
            },
            {
              "internalType": "uint256",
              "name": "a2",
              "type": "uint256"
            },
            {
              "internalType": "uint256",
              "name": "b2",
              "type": "uint256"
            }
          ],
          "internalType": "struct OrderedReserves",
          "name": "reserves",
          "type": "tuple"
        }
      ],
      "name": "_calcBorrowAmount",
      "outputs": [
        {
          "internalType": "uint256",
          "name": "",
          "type": "uint256"
        }
      ],
      "stateMutability": "pure",
      "type": "function"
    },
    {
      "inputs": [
        {
          "internalType": "int256",
          "name": "a",
          "type": "int256"
        },
        {
          "internalType": "int256",
          "name": "b",
          "type": "int256"
        },
        {
          "internalType": "int256",
          "name": "c",
          "type": "int256"
        }
      ],
      "name": "_calcSolutionForQuadratic",
      "outputs": [
        {
          "internalType": "int256",
          "name": "",
          "type": "int256"
        },
        {
          "internalType": "int256",
          "name": "",
          "type": "int256"
        }
      ],
      "stateMutability": "pure",
      "type": "function"
    },
    {
      "inputs": [
        {
          "internalType": "uint256",
          "name": "n",
          "type": "uint256"
        }
      ],
      "name": "_sqrt",
      "outputs": [
        {
          "internalType": "uint256",
          "name": "",
          "type": "uint256"
        }
      ],
      "stateMutability": "pure",
      "type": "function"
    },
    {
      "inputs": [
        {
          "internalType": "address",
          "name": "pool0",
          "type": "address"
        },
        {
          "internalType": "address",
          "name": "pool1",
          "type": "address"
        }
      ],
      "name": "arbitrage",
      "outputs": [],
      "stateMutability": "nonpayable",
      "type": "function"
    },
    {
      "inputs": [
        {
          "internalType": "address",
          "name": "token",
          "type": "address"
        }
      ],
      "name": "baseTokensContains",
      "outputs": [
        {
          "internalType": "bool",
          "name": "",
          "type": "bool"
        }
      ],
      "stateMutability": "view",
      "type": "function"
    },
    {
      "inputs": [
        {
          "internalType": "address",
          "name": "pool0",
          "type": "address"
        },
        {
          "internalType": "address",
          "name": "pool1",
          "type": "address"
        }
      ],
      "name": "getProfit",
      "outputs": [
        {
          "internalType": "uint256",
          "name": "profit",
          "type": "uint256"
        },
        {
          "internalType": "address",
          "name": "baseToken",
          "type": "address"
        }
      ],
      "stateMutability": "view",
      "type": "function"
    },
    {
      "inputs": [],
      "name": "owner",
      "outputs": [
        {
          "internalType": "address",
          "name": "",
          "type": "address"
        }
      ],
      "stateMutability": "view",
      "type": "function"
    },
    {
      "inputs": [],
      "name": "renounceOwnership",
      "outputs": [],
      "stateMutability": "nonpayable",
      "type": "function"
    },
    {
      "inputs": [
        {
          "internalType": "address",
          "name": "newOwner",
          "type": "address"
        }
      ],
      "name": "transferOwnership",
      "outputs": [],
      "stateMutability": "nonpayable",
      "type": "function"
    },
    {
      "inputs": [],
      "name": "treasury",
      "outputs": [
        {
          "internalType": "address",
          "name": "",
          "type": "address"
        }
      ],
      "stateMutability": "view",
      "type": "function"
    },
    {
      "inputs": [
        {
          "internalType": "address",
          "name": "sender",
          "type": "address"
        },
        {
          "internalType": "uint256",
          "name": "amount0",
          "type": "uint256"
        },
        {
          "internalType": "uint256",
          "name": "amount1",
          "type": "uint256"
        },
        {
          "internalType": "bytes",
          "name": "data",
          "type": "bytes"
        }
      ],
      "name": "uniswapCall",
      "outputs": [],
      "stateMutability": "nonpayable",
      "type": "function"
    },
    {
      "inputs": [],
      "name": "withdraw",
      "outputs": [],
      "stateMutability": "nonpayable",
      "type": "function"
    },
    {
      "stateMutability": "payable",
      "type": "receive"
    }
  ],
  "bytecode": "0x60a06040526000600460006101000a81548173ffffffffffffffffffffffffffffffffffffffff021916908373ffffffffffffffffffffffffffffffffffffffff1602179055503480156200005357600080fd5b50600080620000776200006b6200010b60201b60201c565b6200011360201b60201c565b81600160006101000a81548173ffffffffffffffffffffffffffffffffffffffff021916908373ffffffffffffffffffffffffffffffffffffffff1602179055508073ffffffffffffffffffffffffffffffffffffffff1660808173ffffffffffffffffffffffffffffffffffffffff168152505062000102816002620001d760201b90919060201c565b505050620002ac565b600033905090565b60008060009054906101000a900473ffffffffffffffffffffffffffffffffffffffff169050816000806101000a81548173ffffffffffffffffffffffffffffffffffffffff021916908373ffffffffffffffffffffffffffffffffffffffff1602179055508173ffffffffffffffffffffffffffffffffffffffff168173ffffffffffffffffffffffffffffffffffffffff167f8be0079c531659141344cd1fd0a4f28419497f9722a3daafe3b4186f6b6457e060405160405180910390a35050565b600062000207836000018373ffffffffffffffffffffffffffffffffffffffff1660001b6200020f60201b60201c565b905092915050565b60006200022383836200028960201b60201c565b6200027e57826000018290806001815401808255809150506001900390600052602060002001600090919091909150558260000180549050836001016000848152602001908152602001600020819055506001905062000283565b600090505b92915050565b600080836001016000848152602001908152602001600020541415905092915050565b608051613931620002c86000396000610cc901526139316000f3fe6080604052600436106100ab5760003560e01c806370bfc7361161006457806370bfc73614610244578063715018a61461026d578063759eee10146102845780638da5cb5b146102c2578063ce1fea8e146102ed578063f2fde38b14610316576100b2565b806317c1e4dd1461010d57806321d094261461014b5780633ccfd60b146101885780635e3e73ce1461019f57806361d027b3146101dc5780636a263f0214610207576100b2565b366100b257005b3480156100be57600080fd5b506000366060600080600080868660049080926100dd93929190612544565b8101906100ea9190612763565b93509350935093506100fe8484848461033f565b50505050915050805190602001f35b34801561011957600080fd5b50610134600480360381019061012f919061281c565b6105b0565b60405161014292919061287e565b60405180910390f35b34801561015757600080fd5b50610172600480360381019061016d91906128e5565b6105ca565b60405161017f919061292d565b60405180910390f35b34801561019457600080fd5b5061019d6105e7565b005b3480156101ab57600080fd5b506101c660048036038101906101c191906129c5565b610740565b6040516101d39190612a01565b60405180910390f35b3480156101e857600080fd5b506101f1610752565b6040516101fe9190612a2b565b60405180910390f35b34801561021357600080fd5b5061022e60048036038101906102299190612a46565b610778565b60405161023b9190612a01565b60405180910390f35b34801561025057600080fd5b5061026b60048036038101906102669190612a73565b61078a565b005b34801561027957600080fd5b50610282610dd8565b005b34801561029057600080fd5b506102ab60048036038101906102a69190612a73565b610dec565b6040516102b9929190612ab3565b60405180910390f35b3480156102ce57600080fd5b506102d7610f62565b6040516102e49190612a2b565b60405180910390f35b3480156102f957600080fd5b50610314600480360381019061030f9190612adc565b61033f565b005b34801561032257600080fd5b5061033d600480360381019061033891906128e5565b610f8b565b005b600460009054906101000a900473ffffffffffffffffffffffffffffffffffffffff1673ffffffffffffffffffffffffffffffffffffffff163373ffffffffffffffffffffffffffffffffffffffff16146103c6576040517fe6c4247b00000000000000000000000000000000000000000000000000000000815260040160405180910390fd5b3073ffffffffffffffffffffffffffffffffffffffff168473ffffffffffffffffffffffffffffffffffffffff161461042b576040517fe6c4247b00000000000000000000000000000000000000000000000000000000815260040160405180910390fd5b600080841161043a578261043c565b835b90506000828060200190518101906104549190612c69565b9050610489816020015183836060015173ffffffffffffffffffffffffffffffffffffffff1661100e9092919063ffffffff16565b60008082604001516104a15760008360c001516104a9565b8260c0015160005b91509150826020015173ffffffffffffffffffffffffffffffffffffffff1663022c0d9f838330600067ffffffffffffffff8111156104eb576104ea612638565b5b6040519080825280601f01601f19166020018201604052801561051d5781602001600182028036833780820191505090505b506040518563ffffffff1660e01b815260040161053d9493929190612d15565b600060405180830381600087803b15801561055757600080fd5b505af115801561056b573d6000803e3d6000fd5b505050506105a683600001518460a00151856080015173ffffffffffffffffffffffffffffffffffffffff1661100e9092919063ffffffff16565b5050505050505050565b6000806105be858585611094565b91509150935093915050565b60006105e082600261117890919063ffffffff16565b9050919050565b60004790506000811115610644576105fd610f62565b73ffffffffffffffffffffffffffffffffffffffff166108fc829081150290604051600060405180830381858888f19350505050158015610642573d6000803e3d6000fd5b505b60005b61065160026111a8565b81101561073c57600061066e8260026111bd90919063ffffffff16565b90508073ffffffffffffffffffffffffffffffffffffffff166370a08231306040518263ffffffff1660e01b81526004016106a99190612a2b565b602060405180830381865afa1580156106c6573d6000803e3d6000fd5b505050506040513d601f19601f820116820180604052508101906106ea9190612d61565b9250600083111561072857610727610700610f62565b848373ffffffffffffffffffffffffffffffffffffffff1661100e9092919063ffffffff16565b5b50808061073490612dbd565b915050610647565b5050565b600061074b826111d7565b9050919050565b600160009054906101000a900473ffffffffffffffffffffffffffffffffffffffff1681565b600061078382611539565b9050919050565b6107926123cb565b61079c83836115ca565b8360400184600001856020018373ffffffffffffffffffffffffffffffffffffffff1673ffffffffffffffffffffffffffffffffffffffff168152508373ffffffffffffffffffffffffffffffffffffffff1673ffffffffffffffffffffffffffffffffffffffff16815250831515151581525050505061081b612454565b61082a8484846040015161191f565b84606001856080018295508373ffffffffffffffffffffffffffffffffffffffff1673ffffffffffffffffffffffffffffffffffffffff168152508373ffffffffffffffffffffffffffffffffffffffff1673ffffffffffffffffffffffffffffffffffffffff168152505050508160600151600460006101000a81548173ffffffffffffffffffffffffffffffffffffffff021916908373ffffffffffffffffffffffffffffffffffffffff1602179055506000826000015173ffffffffffffffffffffffffffffffffffffffff166370a08231306040518263ffffffff1660e01b815260040161091c9190612a2b565b602060405180830381865afa158015610939573d6000803e3d6000fd5b505050506040513d601f19601f8201168201806040525081019061095d9190612d61565b9050600061096a836111d7565b9050600080856040015161098057826000610984565b6000835b91509150600061099d8487600001518860200151611c03565b905060006109b48588606001518960400151611cb2565b90508181116109ef576040517fa5adf0af00000000000000000000000000000000000000000000000000000000815260040160405180910390fd5b610a4c6040518060400160405280600781526020017f50726f6669743a00000000000000000000000000000000000000000000000000815250670de0b6b3a76400008484610a3d9190612e05565b610a479190612e68565b611d5b565b610a5461247c565b8860600151816000019073ffffffffffffffffffffffffffffffffffffffff16908173ffffffffffffffffffffffffffffffffffffffff16815250508860800151816020019073ffffffffffffffffffffffffffffffffffffffff16908173ffffffffffffffffffffffffffffffffffffffff168152505088604001518160400190151590811515815250508860200151816060019073ffffffffffffffffffffffffffffffffffffffff16908173ffffffffffffffffffffffffffffffffffffffff16815250508860000151816080019073ffffffffffffffffffffffffffffffffffffffff16908173ffffffffffffffffffffffffffffffffffffffff1681525050828160a0018181525050818160c0018181525050600081604051602001610b7f9190612f54565b6040516020818303038152906040529050896060015173ffffffffffffffffffffffffffffffffffffffff1663022c0d9f878730856040518563ffffffff1660e01b8152600401610bd39493929190612d15565b600060405180830381600087803b158015610bed57600080fd5b505af1158015610c01573d6000803e3d6000fd5b50505050505050505050506000836000015173ffffffffffffffffffffffffffffffffffffffff166370a08231306040518263ffffffff1660e01b8152600401610c4b9190612a2b565b602060405180830381865afa158015610c68573d6000803e3d6000fd5b505050506040513d601f19601f82011682018060405250810190610c8c9190612d61565b9050818111610cc7576040517fa5adf0af00000000000000000000000000000000000000000000000000000000815260040160405180910390fd5b7f000000000000000000000000000000000000000000000000000000000000000073ffffffffffffffffffffffffffffffffffffffff16846000015173ffffffffffffffffffffffffffffffffffffffff1603610d8e57836000015173ffffffffffffffffffffffffffffffffffffffff16632e1a7d4d826040518263ffffffff1660e01b8152600401610d5b9190612a01565b600060405180830381600087803b158015610d7557600080fd5b505af1158015610d89573d6000803e3d6000fd5b505050505b6001600460006101000a81548173ffffffffffffffffffffffffffffffffffffffff021916908373ffffffffffffffffffffffffffffffffffffffff160217905550505050505050565b610de0611df7565b610dea6000611e75565b565b6000806000610dfb85856115ca565b5050905080610e78578473ffffffffffffffffffffffffffffffffffffffff1663d21220a76040518163ffffffff1660e01b8152600401602060405180830381865afa158015610e4f573d6000803e3d6000fd5b505050506040513d601f19601f82011682018060405250810190610e739190612f6f565b610ee8565b8473ffffffffffffffffffffffffffffffffffffffff16630dfe16816040518163ffffffff1660e01b8152600401602060405180830381865afa158015610ec3573d6000803e3d6000fd5b505050506040513d601f19601f82011682018060405250810190610ee79190612f6f565b5b91506000610ef786868461191f565b925050506000610f06826111d7565b90506000610f1d8284600001518560200151611c03565b90506000610f348385606001518660400151611cb2565b905081811015610f475760009650610f56565b8181610f539190612e05565b96505b50505050509250929050565b60008060009054906101000a900473ffffffffffffffffffffffffffffffffffffffff16905090565b610f93611df7565b600073ffffffffffffffffffffffffffffffffffffffff168173ffffffffffffffffffffffffffffffffffffffff1603611002576040517f08c379a0000000000000000000000000000000000000000000000000000000008152600401610ff99061301f565b60405180910390fd5b61100b81611e75565b50565b61108f8363a9059cbb60e01b848460405160240161102d92919061303f565b604051602081830303815290604052907bffffffffffffffffffffffffffffffffffffffffffffffffffffffff19166020820180517bffffffffffffffffffffffffffffffffffffffffffffffffffffffff8381831617835250505050611f39565b505050565b6000806000838660046110a79190613068565b6110b19190613068565b6002866110be919061323c565b6110c891906132a8565b90506000811215611105576040517f5f6f132c00000000000000000000000000000000000000000000000000000000815260040160405180910390fd5b600061111082611539565b905086600261111f9190613068565b818761112a906132eb565b6111349190613333565b61113e9190613377565b935086600261114d9190613068565b8187611158906132eb565b61116291906132a8565b61116c9190613377565b92505050935093915050565b60006111a0836000018373ffffffffffffffffffffffffffffffffffffffff1660001b612001565b905092915050565b60006111b682600001612024565b9050919050565b60006111cc8360000183612035565b60001c905092915050565b60008082602001518360000151106111f35782602001516111f9565b82600001515b90506000836060015184604001511061121657836060015161121c565b83604001515b9050600081831061122d578161122f565b825b9050600069d3c21bcecceda10000008211156112565768056bc75e2d631000009050611380565b69152d02c7e14af680000082111561127857678ac7230489e80000905061137f565b69021e19e0c9bab240000082111561129a57670de0b6b3a7640000905061137e565b683635c9adc5dea000008211156112bb5767016345785d8a0000905061137d565b68056bc75e2d631000008211156112db57662386f26fc10000905061137c565b678ac7230489e800008211156112fa5766038d7ea4c68000905061137b565b670de0b6b3a764000082111561131857655af3107a4000905061137a565b67016345785d8a0000821115611336576509184e72a0009050611379565b662386f26fc100008211156113525764e8d4a510009050611378565b66038d7ea4c6800082111561136e5764174876e8009050611377565b6402540be40090505b5b5b5b5b5b5b5b5b5b600080600080848a600001516113969190612e68565b858b604001516113a69190612e68565b868c602001516113b69190612e68565b878d606001516113c69190612e68565b9350935093509350600081846113dc9190613068565b83866113e89190613068565b6113f291906132a8565b9050600084866114029190613333565b838560026114109190613068565b61141a9190613068565b6114249190613068565b9050600084866114349190613068565b84886114409190613068565b61144a91906132a8565b84866114569190613068565b6114609190613068565b9050600080611470858585611094565b9150915060008213801561148357508682125b801561148e57508582125b1580156114b257506000811380156114a557508681125b80156114b057508581125b155b156114e9576040517f4ba531ec00000000000000000000000000000000000000000000000000000000815260040160405180910390fd5b6000821380156114f857508682125b801561150357508582125b61151857898161151391906133e1565b611525565b898261152491906133e1565b5b9d5050505050505050505050505050919050565b60006001821161154c5761154b613423565b5b6000620f42408361155d91906133e1565b9050600081905081925060005b6001156115b2576002848361157f9190612e68565b8561158a9190613452565b6115949190612e68565b90506103e881856115a59190612e05565b106115b25780935061156a565b6103e8846115c09190612e68565b9350505050919050565b60008060008373ffffffffffffffffffffffffffffffffffffffff168573ffffffffffffffffffffffffffffffffffffffff1603611634576040517fe6c4247b00000000000000000000000000000000000000000000000000000000815260040160405180910390fd5b6000808673ffffffffffffffffffffffffffffffffffffffff16630dfe16816040518163ffffffff1660e01b8152600401602060405180830381865afa158015611682573d6000803e3d6000fd5b505050506040513d601f19601f820116820180604052508101906116a69190612f6f565b8773ffffffffffffffffffffffffffffffffffffffff1663d21220a76040518163ffffffff1660e01b8152600401602060405180830381865afa1580156116f1573d6000803e3d6000fd5b505050506040513d601f19601f820116820180604052508101906117159190612f6f565b915091506000808773ffffffffffffffffffffffffffffffffffffffff16630dfe16816040518163ffffffff1660e01b8152600401602060405180830381865afa158015611767573d6000803e3d6000fd5b505050506040513d601f19601f8201168201806040525081019061178b9190612f6f565b8873ffffffffffffffffffffffffffffffffffffffff1663d21220a76040518163ffffffff1660e01b8152600401602060405180830381865afa1580156117d6573d6000803e3d6000fd5b505050506040513d601f19601f820116820180604052508101906117fa9190612f6f565b915091508273ffffffffffffffffffffffffffffffffffffffff168473ffffffffffffffffffffffffffffffffffffffff16118061186357508073ffffffffffffffffffffffffffffffffffffffff168273ffffffffffffffffffffffffffffffffffffffff16115b1561189a576040517fd65c97fc00000000000000000000000000000000000000000000000000000000815260040160405180910390fd5b6118a3846105ca565b1580156118b657506118b4836105ca565b155b156118ed576040517fd65c97fc00000000000000000000000000000000000000000000000000000000815260040160405180910390fd5b6118f6846105ca565b6119035760008385611908565b600184845b809750819850829950505050505050509250925092565b60008061192a612454565b6000808773ffffffffffffffffffffffffffffffffffffffff16630902f1ac6040518163ffffffff1660e01b8152600401606060405180830381865afa158015611978573d6000803e3d6000fd5b505050506040513d601f19601f8201168201806040525081019061199c9190613508565b506dffffffffffffffffffffffffffff1691506dffffffffffffffffffffffffffff1691506000808873ffffffffffffffffffffffffffffffffffffffff16630902f1ac6040518163ffffffff1660e01b8152600401606060405180830381865afa158015611a0f573d6000803e3d6000fd5b505050506040513d601f19601f82011682018060405250810190611a339190613508565b506dffffffffffffffffffffffffffff1691506dffffffffffffffffffffffffffff16915060008089611a9b57611a7b86611a6d87612060565b61209190919063ffffffff16565b611a9685611a8886612060565b61209190919063ffffffff16565b611ad2565b611ab685611aa888612060565b61209190919063ffffffff16565b611ad184611ac387612060565b61209190919063ffffffff16565b5b91509150611ae981836120bf90919063ffffffff16565b15611b34578b8b809950819a50505089611b065784868486611b0b565b858585855b8a6000018b6020018c6040018d6060018481525084815250848152508481525050505050611b76565b8a8c809950819a50505089611b4c5782848688611b51565b838387875b8a6000018b6020018c6040018d60600184815250848152508481525084815250505050505b611bb56040518060400160405280601181526020017f426f72726f772066726f6d20706f6f6c3a0000000000000000000000000000008152508a6120d5565b611bf46040518060400160405280600d81526020017f53656c6c20746f20706f6f6c3a00000000000000000000000000000000000000815250896120d5565b50505050505093509350939050565b600080841480611c135750600083145b80611c1e5750600082145b15611c55576040517f5f6f132c00000000000000000000000000000000000000000000000000000000815260040160405180910390fd5b60006103e88585611c6691906133e1565b611c7091906133e1565b905060006103e58685611c839190612e05565b611c8d91906133e1565b905060018183611c9d9190612e68565b611ca79190613452565b925050509392505050565b600080841480611cc25750600083145b80611ccd5750600082145b15611d04576040517f5f6f132c00000000000000000000000000000000000000000000000000000000815260040160405180910390fd5b60006103e585611d1491906133e1565b905060008382611d2491906133e1565b90506000826103e887611d3791906133e1565b611d419190613452565b90508082611d4f9190612e68565b93505050509392505050565b611df38282604051602401611d7192919061359f565b6040516020818303038152906040527fb60e72cc000000000000000000000000000000000000000000000000000000007bffffffffffffffffffffffffffffffffffffffffffffffffffffffff19166020820180517bffffffffffffffffffffffffffffffffffffffffffffffffffffffff8381831617835250505050612171565b5050565b611dff61218b565b73ffffffffffffffffffffffffffffffffffffffff16611e1d610f62565b73ffffffffffffffffffffffffffffffffffffffff1614611e73576040517f08c379a0000000000000000000000000000000000000000000000000000000008152600401611e6a9061361b565b60405180910390fd5b565b60008060009054906101000a900473ffffffffffffffffffffffffffffffffffffffff169050816000806101000a81548173ffffffffffffffffffffffffffffffffffffffff021916908373ffffffffffffffffffffffffffffffffffffffff1602179055508173ffffffffffffffffffffffffffffffffffffffff168173ffffffffffffffffffffffffffffffffffffffff167f8be0079c531659141344cd1fd0a4f28419497f9722a3daafe3b4186f6b6457e060405160405180910390a35050565b6000611f9b826040518060400160405280602081526020017f5361666545524332303a206c6f772d6c6576656c2063616c6c206661696c65648152508573ffffffffffffffffffffffffffffffffffffffff166121939092919063ffffffff16565b9050600081511480611fbd575080806020019051810190611fbc919061363b565b5b611ffc576040517f08c379a0000000000000000000000000000000000000000000000000000000008152600401611ff3906136da565b60405180910390fd5b505050565b600080836001016000848152602001908152602001600020541415905092915050565b600081600001805490509050919050565b600082600001828154811061204d5761204c6136fa565b5b9060005260206000200154905092915050565b612068612513565b6040518060200160405280670de0b6b3a76400008461208791906133e1565b8152509050919050565b612099612513565b60405180602001604052808385600001516120b49190612e68565b815250905092915050565b6000806120cc84846121ab565b14905092915050565b61216d82826040516024016120eb929190613729565b6040516020818303038152906040527f319af333000000000000000000000000000000000000000000000000000000007bffffffffffffffffffffffffffffffffffffffffffffffffffffffff19166020820180517bffffffffffffffffffffffffffffffffffffffffffffffffffffffff8381831617835250505050612171565b5050565b612188816121806121ea61220b565b63ffffffff16565b50565b600033905090565b60606121a28484600085612216565b90509392505050565b600081600001518360000151036121c557600190506121e4565b81600001518360000151116121db5760006121de565b60025b60ff1690505b92915050565b60006a636f6e736f6c652e6c6f679050600080835160208501845afa505050565b612526819050919050565b60608247101561225b576040517f08c379a0000000000000000000000000000000000000000000000000000000008152600401612252906137cb565b60405180910390fd5b6000808673ffffffffffffffffffffffffffffffffffffffff1685876040516122849190613827565b60006040518083038185875af1925050503d80600081146122c1576040519150601f19603f3d011682016040523d82523d6000602084013e6122c6565b606091505b50915091506122d7878383876122e3565b92505050949350505050565b6060831561234557600083510361233d576122fd85612358565b61233c576040517f08c379a00000000000000000000000000000000000000000000000000000000081526004016123339061388a565b60405180910390fd5b5b829050612350565b61234f838361237b565b5b949350505050565b6000808273ffffffffffffffffffffffffffffffffffffffff163b119050919050565b60008251111561238e5781518083602001fd5b806040517f08c379a00000000000000000000000000000000000000000000000000000000081526004016123c291906138aa565b60405180910390fd5b6040518060a00160405280600073ffffffffffffffffffffffffffffffffffffffff168152602001600073ffffffffffffffffffffffffffffffffffffffff168152602001600015158152602001600073ffffffffffffffffffffffffffffffffffffffff168152602001600073ffffffffffffffffffffffffffffffffffffffff1681525090565b6040518060800160405280600081526020016000815260200160008152602001600081525090565b6040518060e00160405280600073ffffffffffffffffffffffffffffffffffffffff168152602001600073ffffffffffffffffffffffffffffffffffffffff168152602001600015158152602001600073ffffffffffffffffffffffffffffffffffffffff168152602001600073ffffffffffffffffffffffffffffffffffffffff16815260200160008152602001600081525090565b6040518060200160405280600081525090565b61252e6138cc565b565b6000604051905090565b600080fd5b600080fd5b600080858511156125585761255761253a565b5b838611156125695761256861253f565b5b6001850283019150848603905094509492505050565b600080fd5b600080fd5b600073ffffffffffffffffffffffffffffffffffffffff82169050919050565b60006125b482612589565b9050919050565b6125c4816125a9565b81146125cf57600080fd5b50565b6000813590506125e1816125bb565b92915050565b6000819050919050565b6125fa816125e7565b811461260557600080fd5b50565b600081359050612617816125f1565b92915050565b600080fd5b600080fd5b6000601f19601f8301169050919050565b7f4e487b7100000000000000000000000000000000000000000000000000000000600052604160045260246000fd5b61267082612627565b810181811067ffffffffffffffff8211171561268f5761268e612638565b5b80604052505050565b60006126a2612530565b90506126ae8282612667565b919050565b600067ffffffffffffffff8211156126ce576126cd612638565b5b6126d782612627565b9050602081019050919050565b82818337600083830152505050565b6000612706612701846126b3565b612698565b90508281526020810184848401111561272257612721612622565b5b61272d8482856126e4565b509392505050565b600082601f83011261274a5761274961261d565b5b813561275a8482602086016126f3565b91505092915050565b6000806000806080858703121561277d5761277c61257f565b5b600061278b878288016125d2565b945050602061279c87828801612608565b93505060406127ad87828801612608565b925050606085013567ffffffffffffffff8111156127ce576127cd612584565b5b6127da87828801612735565b91505092959194509250565b6000819050919050565b6127f9816127e6565b811461280457600080fd5b50565b600081359050612816816127f0565b92915050565b6000806000606084860312156128355761283461257f565b5b600061284386828701612807565b935050602061285486828701612807565b925050604061286586828701612807565b9150509250925092565b612878816127e6565b82525050565b6000604082019050612893600083018561286f565b6128a0602083018461286f565b9392505050565b60006128b282612589565b9050919050565b6128c2816128a7565b81146128cd57600080fd5b50565b6000813590506128df816128b9565b92915050565b6000602082840312156128fb576128fa61257f565b5b6000612909848285016128d0565b91505092915050565b60008115159050919050565b61292781612912565b82525050565b6000602082019050612942600083018461291e565b92915050565b600080fd5b60006080828403121561296357612962612948565b5b61296d6080612698565b9050600061297d84828501612608565b600083015250602061299184828501612608565b60208301525060406129a584828501612608565b60408301525060606129b984828501612608565b60608301525092915050565b6000608082840312156129db576129da61257f565b5b60006129e98482850161294d565b91505092915050565b6129fb816125e7565b82525050565b6000602082019050612a1660008301846129f2565b92915050565b612a25816128a7565b82525050565b6000602082019050612a406000830184612a1c565b92915050565b600060208284031215612a5c57612a5b61257f565b5b6000612a6a84828501612608565b91505092915050565b60008060408385031215612a8a57612a8961257f565b5b6000612a98858286016128d0565b9250506020612aa9858286016128d0565b9150509250929050565b6000604082019050612ac860008301856129f2565b612ad56020830184612a1c565b9392505050565b60008060008060808587031215612af657612af561257f565b5b6000612b04878288016128d0565b9450506020612b1587828801612608565b9350506040612b2687828801612608565b925050606085013567ffffffffffffffff811115612b4757612b46612584565b5b612b5387828801612735565b91505092959194509250565b600081519050612b6e816128b9565b92915050565b612b7d81612912565b8114612b8857600080fd5b50565b600081519050612b9a81612b74565b92915050565b600081519050612baf816125f1565b92915050565b600060e08284031215612bcb57612bca612948565b5b612bd560e0612698565b90506000612be584828501612b5f565b6000830152506020612bf984828501612b5f565b6020830152506040612c0d84828501612b8b565b6040830152506060612c2184828501612b5f565b6060830152506080612c3584828501612b5f565b60808301525060a0612c4984828501612ba0565b60a08301525060c0612c5d84828501612ba0565b60c08301525092915050565b600060e08284031215612c7f57612c7e61257f565b5b6000612c8d84828501612bb5565b91505092915050565b600081519050919050565b600082825260208201905092915050565b60005b83811015612cd0578082015181840152602081019050612cb5565b60008484015250505050565b6000612ce782612c96565b612cf18185612ca1565b9350612d01818560208601612cb2565b612d0a81612627565b840191505092915050565b6000608082019050612d2a60008301876129f2565b612d3760208301866129f2565b612d446040830185612a1c565b8181036060830152612d568184612cdc565b905095945050505050565b600060208284031215612d7757612d7661257f565b5b6000612d8584828501612ba0565b91505092915050565b7f4e487b7100000000000000000000000000000000000000000000000000000000600052601160045260246000fd5b6000612dc8826125e7565b91507fffffffffffffffffffffffffffffffffffffffffffffffffffffffffffffffff8203612dfa57612df9612d8e565b5b600182019050919050565b6000612e10826125e7565b9150612e1b836125e7565b9250828203905081811115612e3357612e32612d8e565b5b92915050565b7f4e487b7100000000000000000000000000000000000000000000000000000000600052601260045260246000fd5b6000612e73826125e7565b9150612e7e836125e7565b925082612e8e57612e8d612e39565b5b828204905092915050565b612ea2816128a7565b82525050565b612eb181612912565b82525050565b612ec0816125e7565b82525050565b60e082016000820151612edc6000850182612e99565b506020820151612eef6020850182612e99565b506040820151612f026040850182612ea8565b506060820151612f156060850182612e99565b506080820151612f286080850182612e99565b5060a0820151612f3b60a0850182612eb7565b5060c0820151612f4e60c0850182612eb7565b50505050565b600060e082019050612f696000830184612ec6565b92915050565b600060208284031215612f8557612f8461257f565b5b6000612f9384828501612b5f565b91505092915050565b600082825260208201905092915050565b7f4f776e61626c653a206e6577206f776e657220697320746865207a65726f206160008201527f6464726573730000000000000000000000000000000000000000000000000000602082015250565b6000613009602683612f9c565b915061301482612fad565b604082019050919050565b6000602082019050818103600083015261303881612ffc565b9050919050565b60006040820190506130546000830185612a1c565b61306160208301846129f2565b9392505050565b6000613073826127e6565b915061307e836127e6565b925082820261308c816127e6565b91507f800000000000000000000000000000000000000000000000000000000000000084146000841216156130c4576130c3612d8e565b5b82820584148315176130d9576130d8612d8e565b5b5092915050565b60008160011c9050919050565b6000808291508390505b60018511156131375780860481111561311357613112612d8e565b5b60018516156131225780820291505b8081029050613130856130e0565b94506130f7565b94509492505050565b6000826000811461315857600181146131625761316b565b6001915050613227565b82915050613227565b508161317a5760009050613227565b60019050600082136001811461319757600081146131af576131c3565b8286048311156131aa576131a9612d8e565b5b6131c3565b8286058312156131c2576131c1612d8e565b5b5b5060018316156131d1578190505b81820291506131df836130e0565b92506131ed858484846130ed565b92509050818504811160008213161561320957613208612d8e565b5b818405811260008212161561322157613220612d8e565b5b81810290505b949350505050565b600060ff82169050919050565b6000613247826127e6565b91506132528361322f565b92506132a07f7fffffffffffffffffffffffffffffffffffffffffffffffffffffffffffffff7f80000000000000000000000000000000000000000000000000000000000000008585613140565b905092915050565b60006132b3826127e6565b91506132be836127e6565b92508282039050818112600084121682821360008512151617156132e5576132e4612d8e565b5b92915050565b60006132f6826127e6565b91507f8000000000000000000000000000000000000000000000000000000000000000820361332857613327612d8e565b5b816000039050919050565b600061333e826127e6565b9150613349836127e6565b92508282019050828112156000831216838212600084121516171561337157613370612d8e565b5b92915050565b6000613382826127e6565b915061338d836127e6565b92508261339d5761339c612e39565b5b600160000383147f8000000000000000000000000000000000000000000000000000000000000000831416156133d6576133d5612d8e565b5b828205905092915050565b60006133ec826125e7565b91506133f7836125e7565b9250828202613405816125e7565b9150828204841483151761341c5761341b612d8e565b5b5092915050565b7f4e487b7100000000000000000000000000000000000000000000000000000000600052600160045260246000fd5b600061345d826125e7565b9150613468836125e7565b92508282019050808211156134805761347f612d8e565b5b92915050565b60006dffffffffffffffffffffffffffff82169050919050565b6134a981613486565b81146134b457600080fd5b50565b6000815190506134c6816134a0565b92915050565b600063ffffffff82169050919050565b6134e5816134cc565b81146134f057600080fd5b50565b600081519050613502816134dc565b92915050565b6000806000606084860312156135215761352061257f565b5b600061352f868287016134b7565b9350506020613540868287016134b7565b9250506040613551868287016134f3565b9150509250925092565b600081519050919050565b60006135718261355b565b61357b8185612f9c565b935061358b818560208601612cb2565b61359481612627565b840191505092915050565b600060408201905081810360008301526135b98185613566565b90506135c860208301846129f2565b9392505050565b7f4f776e61626c653a2063616c6c6572206973206e6f7420746865206f776e6572600082015250565b6000613605602083612f9c565b9150613610826135cf565b602082019050919050565b60006020820190508181036000830152613634816135f8565b9050919050565b6000602082840312156136515761365061257f565b5b600061365f84828501612b8b565b91505092915050565b7f5361666545524332303a204552433230206f7065726174696f6e20646964206e60008201527f6f74207375636365656400000000000000000000000000000000000000000000602082015250565b60006136c4602a83612f9c565b91506136cf82613668565b604082019050919050565b600060208201905081810360008301526136f3816136b7565b9050919050565b7f4e487b7100000000000000000000000000000000000000000000000000000000600052603260045260246000fd5b600060408201905081810360008301526137438185613566565b90506137526020830184612a1c565b9392505050565b7f416464726573733a20696e73756666696369656e742062616c616e636520666f60008201527f722063616c6c0000000000000000000000000000000000000000000000000000602082015250565b60006137b5602683612f9c565b91506137c082613759565b604082019050919050565b600060208201905081810360008301526137e4816137a8565b9050919050565b600081905092915050565b600061380182612c96565b61380b81856137eb565b935061381b818560208601612cb2565b80840191505092915050565b600061383382846137f6565b915081905092915050565b7f416464726573733a2063616c6c20746f206e6f6e2d636f6e7472616374000000600082015250565b6000613874601d83612f9c565b915061387f8261383e565b602082019050919050565b600060208201905081810360008301526138a381613867565b9050919050565b600060208201905081810360008301526138c48184613566565b905092915050565b7f4e487b7100000000000000000000000000000000000000000000000000000000600052605160045260246000fdfea2646970667358221220813a7aac7b8b338459a31981d2bc2ea8b6b41530327c7cf36a01d8a19e1ef27d64736f6c63430008140033",
  "linkReferences": {},
  "deployedLinkReferences": {}
}