{
  "_format": "hh-sol-artifact-1",
  "contractName": "Bot",
  "sourceName": "contracts/Bot.sol",
  "abi": [
    {
      "inputs": [
        {
          "internalType": "address",
          "name": "_treasury",
          "type": "address"
        },
        {
          "internalType": "address",
          "name": "_WETH",
          "type": "address"
        }
      ],
      "stateMutability": "nonpayable",
      "type": "constructor"
    },
    {
      "inputs": [],
      "name": "InvalidAddress",
      "type": "error"
    },
    {
      "inputs": [],
      "name": "InvalidArguments",
      "type": "error"
    },
    {
      "inputs": [],
      "name": "NonStandardAmm",
      "type": "error"
    },
    {
      "inputs": [],
      "name": "NotProfitable",
      "type": "error"
    },
    {
      "inputs": [],
      "name": "WrongResult",
      "type": "error"
    },
    {
      "anonymous": false,
      "inputs": [
        {
          "indexed": true,
          "internalType": "address",
          "name": "previousOwner",
          "type": "address"
        },
        {
          "indexed": true,
          "internalType": "address",
          "name": "newOwner",
          "type": "address"
        }
      ],
      "name": "OwnershipTransferred",
      "type": "event"
    },
    {
      "stateMutability": "nonpayable",
      "type": "fallback"
    },
    {
      "inputs": [
        {
          "internalType": "address",
          "name": "pool0",
          "type": "address"
        },
        {
          "internalType": "address",
          "name": "pool1",
          "type": "address"
        }
      ],
      "name": "arbitrage",
      "outputs": [],
      "stateMutability": "nonpayable",
      "type": "function"
    },
    {
      "inputs": [
        {
          "internalType": "address",
          "name": "token",
          "type": "address"
        }
      ],
      "name": "baseTokensContains",
      "outputs": [
        {
          "internalType": "bool",
          "name": "",
          "type": "bool"
        }
      ],
      "stateMutability": "view",
      "type": "function"
    },
    {
      "inputs": [
        {
          "internalType": "address",
          "name": "pool0",
          "type": "address"
        },
        {
          "internalType": "address",
          "name": "pool1",
          "type": "address"
        }
      ],
      "name": "getProfit",
      "outputs": [
        {
          "internalType": "uint256",
          "name": "profit",
          "type": "uint256"
        },
        {
          "internalType": "address",
          "name": "baseToken",
          "type": "address"
        }
      ],
      "stateMutability": "view",
      "type": "function"
    },
    {
      "inputs": [],
      "name": "owner",
      "outputs": [
        {
          "internalType": "address",
          "name": "",
          "type": "address"
        }
      ],
      "stateMutability": "view",
      "type": "function"
    },
    {
      "inputs": [],
      "name": "renounceOwnership",
      "outputs": [],
      "stateMutability": "nonpayable",
      "type": "function"
    },
    {
      "inputs": [
        {
          "internalType": "address",
          "name": "newOwner",
          "type": "address"
        }
      ],
      "name": "transferOwnership",
      "outputs": [],
      "stateMutability": "nonpayable",
      "type": "function"
    },
    {
      "inputs": [],
      "name": "treasury",
      "outputs": [
        {
          "internalType": "address",
          "name": "",
          "type": "address"
        }
      ],
      "stateMutability": "view",
      "type": "function"
    },
    {
      "inputs": [
        {
          "internalType": "address",
          "name": "sender",
          "type": "address"
        },
        {
          "internalType": "uint256",
          "name": "amount0",
          "type": "uint256"
        },
        {
          "internalType": "uint256",
          "name": "amount1",
          "type": "uint256"
        },
        {
          "internalType": "bytes",
          "name": "data",
          "type": "bytes"
        }
      ],
      "name": "uniswapCall",
      "outputs": [],
      "stateMutability": "nonpayable",
      "type": "function"
    },
    {
      "inputs": [],
      "name": "withdraw",
      "outputs": [],
      "stateMutability": "nonpayable",
      "type": "function"
    },
    {
      "stateMutability": "payable",
      "type": "receive"
    }
  ],
  "bytecode": "0x60a06040526000600460006101000a81548173ffffffffffffffffffffffffffffffffffffffff021916908373ffffffffffffffffffffffffffffffffffffffff1602179055503480156200005357600080fd5b5060405162003a2c38038062003a2c833981810160405281019062000079919062000338565b620000996200008d6200012d60201b60201c565b6200013560201b60201c565b81600160006101000a81548173ffffffffffffffffffffffffffffffffffffffff021916908373ffffffffffffffffffffffffffffffffffffffff1602179055508073ffffffffffffffffffffffffffffffffffffffff1660808173ffffffffffffffffffffffffffffffffffffffff168152505062000124816002620001f960201b90919060201c565b5050506200037f565b600033905090565b60008060009054906101000a900473ffffffffffffffffffffffffffffffffffffffff169050816000806101000a81548173ffffffffffffffffffffffffffffffffffffffff021916908373ffffffffffffffffffffffffffffffffffffffff1602179055508173ffffffffffffffffffffffffffffffffffffffff168173ffffffffffffffffffffffffffffffffffffffff167f8be0079c531659141344cd1fd0a4f28419497f9722a3daafe3b4186f6b6457e060405160405180910390a35050565b600062000229836000018373ffffffffffffffffffffffffffffffffffffffff1660001b6200023160201b60201c565b905092915050565b6000620002458383620002ab60201b60201c565b620002a0578260000182908060018154018082558091505060019003906000526020600020016000909190919091505582600001805490508360010160008481526020019081526020016000208190555060019050620002a5565b600090505b92915050565b600080836001016000848152602001908152602001600020541415905092915050565b600080fd5b600073ffffffffffffffffffffffffffffffffffffffff82169050919050565b60006200030082620002d3565b9050919050565b6200031281620002f3565b81146200031e57600080fd5b50565b600081519050620003328162000307565b92915050565b60008060408385031215620003525762000351620002ce565b5b6000620003628582860162000321565b9250506020620003758582860162000321565b9150509250929050565b6080516136916200039b6000396000610bb201526136916000f3fe60806040526004361061008a5760003560e01c8063715018a611610059578063715018a614610194578063759eee10146101ab5780638da5cb5b146101e9578063ce1fea8e14610214578063f2fde38b1461023d57610091565b806321d09426146100ec5780633ccfd60b1461012957806361d027b31461014057806370bfc7361461016b57610091565b3661009157005b34801561009d57600080fd5b506000366060600080600080868660049080926100bc9392919061242d565b8101906100c9919061264c565b93509350935093506100dd84848484610266565b50505050915050805190602001f35b3480156100f857600080fd5b50610113600480360381019061010e919061270d565b6104d7565b6040516101209190612755565b60405180910390f35b34801561013557600080fd5b5061013e6104f4565b005b34801561014c57600080fd5b5061015561064d565b604051610162919061277f565b60405180910390f35b34801561017757600080fd5b50610192600480360381019061018d919061279a565b610673565b005b3480156101a057600080fd5b506101a9610cc1565b005b3480156101b757600080fd5b506101d260048036038101906101cd919061279a565b610cd5565b6040516101e09291906127e9565b60405180910390f35b3480156101f557600080fd5b506101fe610e4b565b60405161020b919061277f565b60405180910390f35b34801561022057600080fd5b5061023b60048036038101906102369190612812565b610266565b005b34801561024957600080fd5b50610264600480360381019061025f919061270d565b610e74565b005b600460009054906101000a900473ffffffffffffffffffffffffffffffffffffffff1673ffffffffffffffffffffffffffffffffffffffff163373ffffffffffffffffffffffffffffffffffffffff16146102ed576040517fe6c4247b00000000000000000000000000000000000000000000000000000000815260040160405180910390fd5b3073ffffffffffffffffffffffffffffffffffffffff168473ffffffffffffffffffffffffffffffffffffffff1614610352576040517fe6c4247b00000000000000000000000000000000000000000000000000000000815260040160405180910390fd5b60008084116103615782610363565b835b905060008280602001905181019061037b91906129a4565b90506103b0816020015183836060015173ffffffffffffffffffffffffffffffffffffffff16610ef79092919063ffffffff16565b60008082604001516103c85760008360c001516103d0565b8260c0015160005b91509150826020015173ffffffffffffffffffffffffffffffffffffffff1663022c0d9f838330600067ffffffffffffffff81111561041257610411612521565b5b6040519080825280601f01601f1916602001820160405280156104445781602001600182028036833780820191505090505b506040518563ffffffff1660e01b81526004016104649493929190612a50565b600060405180830381600087803b15801561047e57600080fd5b505af1158015610492573d6000803e3d6000fd5b505050506104cd83600001518460a00151856080015173ffffffffffffffffffffffffffffffffffffffff16610ef79092919063ffffffff16565b5050505050505050565b60006104ed826002610f7d90919063ffffffff16565b9050919050565b600047905060008111156105515761050a610e4b565b73ffffffffffffffffffffffffffffffffffffffff166108fc829081150290604051600060405180830381858888f1935050505015801561054f573d6000803e3d6000fd5b505b60005b61055e6002610fad565b81101561064957600061057b826002610fc290919063ffffffff16565b90508073ffffffffffffffffffffffffffffffffffffffff166370a08231306040518263ffffffff1660e01b81526004016105b6919061277f565b602060405180830381865afa1580156105d3573d6000803e3d6000fd5b505050506040513d601f19601f820116820180604052508101906105f79190612a9c565b925060008311156106355761063461060d610e4b565b848373ffffffffffffffffffffffffffffffffffffffff16610ef79092919063ffffffff16565b5b50808061064190612af8565b915050610554565b5050565b600160009054906101000a900473ffffffffffffffffffffffffffffffffffffffff1681565b61067b6122b4565b6106858383610fdc565b8360400184600001856020018373ffffffffffffffffffffffffffffffffffffffff1673ffffffffffffffffffffffffffffffffffffffff168152508373ffffffffffffffffffffffffffffffffffffffff1673ffffffffffffffffffffffffffffffffffffffff16815250831515151581525050505061070461233d565b61071384848460400151611331565b84606001856080018295508373ffffffffffffffffffffffffffffffffffffffff1673ffffffffffffffffffffffffffffffffffffffff168152508373ffffffffffffffffffffffffffffffffffffffff1673ffffffffffffffffffffffffffffffffffffffff168152505050508160600151600460006101000a81548173ffffffffffffffffffffffffffffffffffffffff021916908373ffffffffffffffffffffffffffffffffffffffff1602179055506000826000015173ffffffffffffffffffffffffffffffffffffffff166370a08231306040518263ffffffff1660e01b8152600401610805919061277f565b602060405180830381865afa158015610822573d6000803e3d6000fd5b505050506040513d601f19601f820116820180604052508101906108469190612a9c565b9050600061085383611615565b905060008085604001516108695782600061086d565b6000835b9150915060006108868487600001518860200151611977565b9050600061089d8588606001518960400151611a26565b90508181116108d8576040517fa5adf0af00000000000000000000000000000000000000000000000000000000815260040160405180910390fd5b6109356040518060400160405280600781526020017f50726f6669743a00000000000000000000000000000000000000000000000000815250670de0b6b3a764000084846109269190612b40565b6109309190612ba3565b611acf565b61093d612365565b8860600151816000019073ffffffffffffffffffffffffffffffffffffffff16908173ffffffffffffffffffffffffffffffffffffffff16815250508860800151816020019073ffffffffffffffffffffffffffffffffffffffff16908173ffffffffffffffffffffffffffffffffffffffff168152505088604001518160400190151590811515815250508860200151816060019073ffffffffffffffffffffffffffffffffffffffff16908173ffffffffffffffffffffffffffffffffffffffff16815250508860000151816080019073ffffffffffffffffffffffffffffffffffffffff16908173ffffffffffffffffffffffffffffffffffffffff1681525050828160a0018181525050818160c0018181525050600081604051602001610a689190612c8f565b6040516020818303038152906040529050896060015173ffffffffffffffffffffffffffffffffffffffff1663022c0d9f878730856040518563ffffffff1660e01b8152600401610abc9493929190612a50565b600060405180830381600087803b158015610ad657600080fd5b505af1158015610aea573d6000803e3d6000fd5b50505050505050505050506000836000015173ffffffffffffffffffffffffffffffffffffffff166370a08231306040518263ffffffff1660e01b8152600401610b34919061277f565b602060405180830381865afa158015610b51573d6000803e3d6000fd5b505050506040513d601f19601f82011682018060405250810190610b759190612a9c565b9050818111610bb0576040517fa5adf0af00000000000000000000000000000000000000000000000000000000815260040160405180910390fd5b7f000000000000000000000000000000000000000000000000000000000000000073ffffffffffffffffffffffffffffffffffffffff16846000015173ffffffffffffffffffffffffffffffffffffffff1603610c7757836000015173ffffffffffffffffffffffffffffffffffffffff16632e1a7d4d826040518263ffffffff1660e01b8152600401610c449190612caa565b600060405180830381600087803b158015610c5e57600080fd5b505af1158015610c72573d6000803e3d6000fd5b505050505b6001600460006101000a81548173ffffffffffffffffffffffffffffffffffffffff021916908373ffffffffffffffffffffffffffffffffffffffff160217905550505050505050565b610cc9611b6b565b610cd36000611be9565b565b6000806000610ce48585610fdc565b5050905080610d61578473ffffffffffffffffffffffffffffffffffffffff1663d21220a76040518163ffffffff1660e01b8152600401602060405180830381865afa158015610d38573d6000803e3d6000fd5b505050506040513d601f19601f82011682018060405250810190610d5c9190612cc5565b610dd1565b8473ffffffffffffffffffffffffffffffffffffffff16630dfe16816040518163ffffffff1660e01b8152600401602060405180830381865afa158015610dac573d6000803e3d6000fd5b505050506040513d601f19601f82011682018060405250810190610dd09190612cc5565b5b91506000610de0868684611331565b925050506000610def82611615565b90506000610e068284600001518560200151611977565b90506000610e1d8385606001518660400151611a26565b905081811015610e305760009650610e3f565b8181610e3c9190612b40565b96505b50505050509250929050565b60008060009054906101000a900473ffffffffffffffffffffffffffffffffffffffff16905090565b610e7c611b6b565b600073ffffffffffffffffffffffffffffffffffffffff168173ffffffffffffffffffffffffffffffffffffffff1603610eeb576040517f08c379a0000000000000000000000000000000000000000000000000000000008152600401610ee290612d75565b60405180910390fd5b610ef481611be9565b50565b610f788363a9059cbb60e01b8484604051602401610f16929190612d95565b604051602081830303815290604052907bffffffffffffffffffffffffffffffffffffffffffffffffffffffff19166020820180517bffffffffffffffffffffffffffffffffffffffffffffffffffffffff8381831617835250505050611cad565b505050565b6000610fa5836000018373ffffffffffffffffffffffffffffffffffffffff1660001b611d75565b905092915050565b6000610fbb82600001611d98565b9050919050565b6000610fd18360000183611da9565b60001c905092915050565b60008060008373ffffffffffffffffffffffffffffffffffffffff168573ffffffffffffffffffffffffffffffffffffffff1603611046576040517fe6c4247b00000000000000000000000000000000000000000000000000000000815260040160405180910390fd5b6000808673ffffffffffffffffffffffffffffffffffffffff16630dfe16816040518163ffffffff1660e01b8152600401602060405180830381865afa158015611094573d6000803e3d6000fd5b505050506040513d601f19601f820116820180604052508101906110b89190612cc5565b8773ffffffffffffffffffffffffffffffffffffffff1663d21220a76040518163ffffffff1660e01b8152600401602060405180830381865afa158015611103573d6000803e3d6000fd5b505050506040513d601f19601f820116820180604052508101906111279190612cc5565b915091506000808773ffffffffffffffffffffffffffffffffffffffff16630dfe16816040518163ffffffff1660e01b8152600401602060405180830381865afa158015611179573d6000803e3d6000fd5b505050506040513d601f19601f8201168201806040525081019061119d9190612cc5565b8873ffffffffffffffffffffffffffffffffffffffff1663d21220a76040518163ffffffff1660e01b8152600401602060405180830381865afa1580156111e8573d6000803e3d6000fd5b505050506040513d601f19601f8201168201806040525081019061120c9190612cc5565b915091508273ffffffffffffffffffffffffffffffffffffffff168473ffffffffffffffffffffffffffffffffffffffff16118061127557508073ffffffffffffffffffffffffffffffffffffffff168273ffffffffffffffffffffffffffffffffffffffff16115b156112ac576040517fd65c97fc00000000000000000000000000000000000000000000000000000000815260040160405180910390fd5b6112b5846104d7565b1580156112c857506112c6836104d7565b155b156112ff576040517fd65c97fc00000000000000000000000000000000000000000000000000000000815260040160405180910390fd5b611308846104d7565b611315576000838561131a565b600184845b809750819850829950505050505050509250925092565b60008061133c61233d565b6000808773ffffffffffffffffffffffffffffffffffffffff16630902f1ac6040518163ffffffff1660e01b8152600401606060405180830381865afa15801561138a573d6000803e3d6000fd5b505050506040513d601f19601f820116820180604052508101906113ae9190612e40565b506dffffffffffffffffffffffffffff1691506dffffffffffffffffffffffffffff1691506000808873ffffffffffffffffffffffffffffffffffffffff16630902f1ac6040518163ffffffff1660e01b8152600401606060405180830381865afa158015611421573d6000803e3d6000fd5b505050506040513d601f19601f820116820180604052508101906114459190612e40565b506dffffffffffffffffffffffffffff1691506dffffffffffffffffffffffffffff169150600080896114ad5761148d8661147f87611dd4565b611e0590919063ffffffff16565b6114a88561149a86611dd4565b611e0590919063ffffffff16565b6114e4565b6114c8856114ba88611dd4565b611e0590919063ffffffff16565b6114e3846114d587611dd4565b611e0590919063ffffffff16565b5b915091506114fb8183611e3390919063ffffffff16565b15611546578b8b809950819a50505089611518578486848661151d565b858585855b8a6000018b6020018c6040018d6060018481525084815250848152508481525050505050611588565b8a8c809950819a5050508961155e5782848688611563565b838387875b8a6000018b6020018c6040018d60600184815250848152508481525084815250505050505b6115c76040518060400160405280601181526020017f426f72726f772066726f6d20706f6f6c3a0000000000000000000000000000008152508a611e49565b6116066040518060400160405280600d81526020017f53656c6c20746f20706f6f6c3a0000000000000000000000000000000000000081525089611e49565b50505050505093509350939050565b6000808260200151836000015110611631578260200151611637565b82600001515b90506000836060015184604001511061165457836060015161165a565b83604001515b9050600081831061166b578161166d565b825b9050600069d3c21bcecceda10000008211156116945768056bc75e2d6310000090506117be565b69152d02c7e14af68000008211156116b657678ac7230489e8000090506117bd565b69021e19e0c9bab24000008211156116d857670de0b6b3a764000090506117bc565b683635c9adc5dea000008211156116f95767016345785d8a000090506117bb565b68056bc75e2d6310000082111561171957662386f26fc1000090506117ba565b678ac7230489e800008211156117385766038d7ea4c6800090506117b9565b670de0b6b3a764000082111561175657655af3107a400090506117b8565b67016345785d8a0000821115611774576509184e72a00090506117b7565b662386f26fc100008211156117905764e8d4a5100090506117b6565b66038d7ea4c680008211156117ac5764174876e80090506117b5565b6402540be40090505b5b5b5b5b5b5b5b5b5b600080600080848a600001516117d49190612ba3565b858b604001516117e49190612ba3565b868c602001516117f49190612ba3565b878d606001516118049190612ba3565b93509350935093506000818461181a9190612e9d565b83866118269190612e9d565b6118309190612f15565b9050600084866118409190612f58565b8385600261184e9190612e9d565b6118589190612e9d565b6118629190612e9d565b9050600084866118729190612e9d565b848861187e9190612e9d565b6118889190612f15565b84866118949190612e9d565b61189e9190612e9d565b90506000806118ae858585611ee5565b915091506000821380156118c157508682125b80156118cc57508582125b1580156118f057506000811380156118e357508681125b80156118ee57508581125b155b15611927576040517f4ba531ec00000000000000000000000000000000000000000000000000000000815260040160405180910390fd5b60008213801561193657508682125b801561194157508582125b6119565789816119519190612f9c565b611963565b89826119629190612f9c565b5b9d5050505050505050505050505050919050565b6000808414806119875750600083145b806119925750600082145b156119c9576040517f5f6f132c00000000000000000000000000000000000000000000000000000000815260040160405180910390fd5b60006103e885856119da9190612f9c565b6119e49190612f9c565b905060006103e586856119f79190612b40565b611a019190612f9c565b905060018183611a119190612ba3565b611a1b9190612fde565b925050509392505050565b600080841480611a365750600083145b80611a415750600082145b15611a78576040517f5f6f132c00000000000000000000000000000000000000000000000000000000815260040160405180910390fd5b60006103e585611a889190612f9c565b905060008382611a989190612f9c565b90506000826103e887611aab9190612f9c565b611ab59190612fde565b90508082611ac39190612ba3565b93505050509392505050565b611b678282604051602401611ae5929190613056565b6040516020818303038152906040527fb60e72cc000000000000000000000000000000000000000000000000000000007bffffffffffffffffffffffffffffffffffffffffffffffffffffffff19166020820180517bffffffffffffffffffffffffffffffffffffffffffffffffffffffff8381831617835250505050611fc9565b5050565b611b73611fe3565b73ffffffffffffffffffffffffffffffffffffffff16611b91610e4b565b73ffffffffffffffffffffffffffffffffffffffff1614611be7576040517f08c379a0000000000000000000000000000000000000000000000000000000008152600401611bde906130d2565b60405180910390fd5b565b60008060009054906101000a900473ffffffffffffffffffffffffffffffffffffffff169050816000806101000a81548173ffffffffffffffffffffffffffffffffffffffff021916908373ffffffffffffffffffffffffffffffffffffffff1602179055508173ffffffffffffffffffffffffffffffffffffffff168173ffffffffffffffffffffffffffffffffffffffff167f8be0079c531659141344cd1fd0a4f28419497f9722a3daafe3b4186f6b6457e060405160405180910390a35050565b6000611d0f826040518060400160405280602081526020017f5361666545524332303a206c6f772d6c6576656c2063616c6c206661696c65648152508573ffffffffffffffffffffffffffffffffffffffff16611feb9092919063ffffffff16565b9050600081511480611d31575080806020019051810190611d3091906130f2565b5b611d70576040517f08c379a0000000000000000000000000000000000000000000000000000000008152600401611d6790613191565b60405180910390fd5b505050565b600080836001016000848152602001908152602001600020541415905092915050565b600081600001805490509050919050565b6000826000018281548110611dc157611dc06131b1565b5b9060005260206000200154905092915050565b611ddc6123fc565b6040518060200160405280670de0b6b3a764000084611dfb9190612f9c565b8152509050919050565b611e0d6123fc565b6040518060200160405280838560000151611e289190612ba3565b815250905092915050565b600080611e408484612003565b14905092915050565b611ee18282604051602401611e5f9291906131e0565b6040516020818303038152906040527f319af333000000000000000000000000000000000000000000000000000000007bffffffffffffffffffffffffffffffffffffffffffffffffffffffff19166020820180517bffffffffffffffffffffffffffffffffffffffffffffffffffffffff8381831617835250505050611fc9565b5050565b600080600083866004611ef89190612e9d565b611f029190612e9d565b600286611f0f919061336c565b611f199190612f15565b90506000811215611f56576040517f5f6f132c00000000000000000000000000000000000000000000000000000000815260040160405180910390fd5b6000611f6182612042565b9050866002611f709190612e9d565b8187611f7b906133d8565b611f859190612f58565b611f8f9190613420565b9350866002611f9e9190612e9d565b8187611fa9906133d8565b611fb39190612f15565b611fbd9190613420565b92505050935093915050565b611fe081611fd86120d36120f4565b63ffffffff16565b50565b600033905090565b6060611ffa84846000856120ff565b90509392505050565b6000816000015183600001510361201d576001905061203c565b8160000151836000015111612033576000612036565b60025b60ff1690505b92915050565b6000600182116120555761205461348a565b5b6000620f4240836120669190612f9c565b9050600081905081925060005b6001156120bb57600284836120889190612ba3565b856120939190612fde565b61209d9190612ba3565b90506103e881856120ae9190612b40565b106120bb57809350612073565b6103e8846120c99190612ba3565b9350505050919050565b60006a636f6e736f6c652e6c6f679050600080835160208501845afa505050565b61240f819050919050565b606082471015612144576040517f08c379a000000000000000000000000000000000000000000000000000000000815260040161213b9061352b565b60405180910390fd5b6000808673ffffffffffffffffffffffffffffffffffffffff16858760405161216d9190613587565b60006040518083038185875af1925050503d80600081146121aa576040519150601f19603f3d011682016040523d82523d6000602084013e6121af565b606091505b50915091506121c0878383876121cc565b92505050949350505050565b6060831561222e576000835103612226576121e685612241565b612225576040517f08c379a000000000000000000000000000000000000000000000000000000000815260040161221c906135ea565b60405180910390fd5b5b829050612239565b6122388383612264565b5b949350505050565b6000808273ffffffffffffffffffffffffffffffffffffffff163b119050919050565b6000825111156122775781518083602001fd5b806040517f08c379a00000000000000000000000000000000000000000000000000000000081526004016122ab919061360a565b60405180910390fd5b6040518060a00160405280600073ffffffffffffffffffffffffffffffffffffffff168152602001600073ffffffffffffffffffffffffffffffffffffffff168152602001600015158152602001600073ffffffffffffffffffffffffffffffffffffffff168152602001600073ffffffffffffffffffffffffffffffffffffffff1681525090565b6040518060800160405280600081526020016000815260200160008152602001600081525090565b6040518060e00160405280600073ffffffffffffffffffffffffffffffffffffffff168152602001600073ffffffffffffffffffffffffffffffffffffffff168152602001600015158152602001600073ffffffffffffffffffffffffffffffffffffffff168152602001600073ffffffffffffffffffffffffffffffffffffffff16815260200160008152602001600081525090565b6040518060200160405280600081525090565b61241761362c565b565b6000604051905090565b600080fd5b600080fd5b6000808585111561244157612440612423565b5b8386111561245257612451612428565b5b6001850283019150848603905094509492505050565b600080fd5b600080fd5b600073ffffffffffffffffffffffffffffffffffffffff82169050919050565b600061249d82612472565b9050919050565b6124ad81612492565b81146124b857600080fd5b50565b6000813590506124ca816124a4565b92915050565b6000819050919050565b6124e3816124d0565b81146124ee57600080fd5b50565b600081359050612500816124da565b92915050565b600080fd5b600080fd5b6000601f19601f8301169050919050565b7f4e487b7100000000000000000000000000000000000000000000000000000000600052604160045260246000fd5b61255982612510565b810181811067ffffffffffffffff8211171561257857612577612521565b5b80604052505050565b600061258b612419565b90506125978282612550565b919050565b600067ffffffffffffffff8211156125b7576125b6612521565b5b6125c082612510565b9050602081019050919050565b82818337600083830152505050565b60006125ef6125ea8461259c565b612581565b90508281526020810184848401111561260b5761260a61250b565b5b6126168482856125cd565b509392505050565b600082601f83011261263357612632612506565b5b81356126438482602086016125dc565b91505092915050565b6000806000806080858703121561266657612665612468565b5b6000612674878288016124bb565b9450506020612685878288016124f1565b9350506040612696878288016124f1565b925050606085013567ffffffffffffffff8111156126b7576126b661246d565b5b6126c38782880161261e565b91505092959194509250565b60006126da82612472565b9050919050565b6126ea816126cf565b81146126f557600080fd5b50565b600081359050612707816126e1565b92915050565b60006020828403121561272357612722612468565b5b6000612731848285016126f8565b91505092915050565b60008115159050919050565b61274f8161273a565b82525050565b600060208201905061276a6000830184612746565b92915050565b612779816126cf565b82525050565b60006020820190506127946000830184612770565b92915050565b600080604083850312156127b1576127b0612468565b5b60006127bf858286016126f8565b92505060206127d0858286016126f8565b9150509250929050565b6127e3816124d0565b82525050565b60006040820190506127fe60008301856127da565b61280b6020830184612770565b9392505050565b6000806000806080858703121561282c5761282b612468565b5b600061283a878288016126f8565b945050602061284b878288016124f1565b935050604061285c878288016124f1565b925050606085013567ffffffffffffffff81111561287d5761287c61246d565b5b6128898782880161261e565b91505092959194509250565b600080fd5b6000815190506128a9816126e1565b92915050565b6128b88161273a565b81146128c357600080fd5b50565b6000815190506128d5816128af565b92915050565b6000815190506128ea816124da565b92915050565b600060e0828403121561290657612905612895565b5b61291060e0612581565b905060006129208482850161289a565b60008301525060206129348482850161289a565b6020830152506040612948848285016128c6565b604083015250606061295c8482850161289a565b60608301525060806129708482850161289a565b60808301525060a0612984848285016128db565b60a08301525060c0612998848285016128db565b60c08301525092915050565b600060e082840312156129ba576129b9612468565b5b60006129c8848285016128f0565b91505092915050565b600081519050919050565b600082825260208201905092915050565b60005b83811015612a0b5780820151818401526020810190506129f0565b60008484015250505050565b6000612a22826129d1565b612a2c81856129dc565b9350612a3c8185602086016129ed565b612a4581612510565b840191505092915050565b6000608082019050612a6560008301876127da565b612a7260208301866127da565b612a7f6040830185612770565b8181036060830152612a918184612a17565b905095945050505050565b600060208284031215612ab257612ab1612468565b5b6000612ac0848285016128db565b91505092915050565b7f4e487b7100000000000000000000000000000000000000000000000000000000600052601160045260246000fd5b6000612b03826124d0565b91507fffffffffffffffffffffffffffffffffffffffffffffffffffffffffffffffff8203612b3557612b34612ac9565b5b600182019050919050565b6000612b4b826124d0565b9150612b56836124d0565b9250828203905081811115612b6e57612b6d612ac9565b5b92915050565b7f4e487b7100000000000000000000000000000000000000000000000000000000600052601260045260246000fd5b6000612bae826124d0565b9150612bb9836124d0565b925082612bc957612bc8612b74565b5b828204905092915050565b612bdd816126cf565b82525050565b612bec8161273a565b82525050565b612bfb816124d0565b82525050565b60e082016000820151612c176000850182612bd4565b506020820151612c2a6020850182612bd4565b506040820151612c3d6040850182612be3565b506060820151612c506060850182612bd4565b506080820151612c636080850182612bd4565b5060a0820151612c7660a0850182612bf2565b5060c0820151612c8960c0850182612bf2565b50505050565b600060e082019050612ca46000830184612c01565b92915050565b6000602082019050612cbf60008301846127da565b92915050565b600060208284031215612cdb57612cda612468565b5b6000612ce98482850161289a565b91505092915050565b600082825260208201905092915050565b7f4f776e61626c653a206e6577206f776e657220697320746865207a65726f206160008201527f6464726573730000000000000000000000000000000000000000000000000000602082015250565b6000612d5f602683612cf2565b9150612d6a82612d03565b604082019050919050565b60006020820190508181036000830152612d8e81612d52565b9050919050565b6000604082019050612daa6000830185612770565b612db760208301846127da565b9392505050565b60006dffffffffffffffffffffffffffff82169050919050565b612de181612dbe565b8114612dec57600080fd5b50565b600081519050612dfe81612dd8565b92915050565b600063ffffffff82169050919050565b612e1d81612e04565b8114612e2857600080fd5b50565b600081519050612e3a81612e14565b92915050565b600080600060608486031215612e5957612e58612468565b5b6000612e6786828701612def565b9350506020612e7886828701612def565b9250506040612e8986828701612e2b565b9150509250925092565b6000819050919050565b6000612ea882612e93565b9150612eb383612e93565b9250828202612ec181612e93565b91507f80000000000000000000000000000000000000000000000000000000000000008414600084121615612ef957612ef8612ac9565b5b8282058414831517612f0e57612f0d612ac9565b5b5092915050565b6000612f2082612e93565b9150612f2b83612e93565b9250828203905081811260008412168282136000851215161715612f5257612f51612ac9565b5b92915050565b6000612f6382612e93565b9150612f6e83612e93565b925082820190508281121560008312168382126000841215161715612f9657612f95612ac9565b5b92915050565b6000612fa7826124d0565b9150612fb2836124d0565b9250828202612fc0816124d0565b91508282048414831517612fd757612fd6612ac9565b5b5092915050565b6000612fe9826124d0565b9150612ff4836124d0565b925082820190508082111561300c5761300b612ac9565b5b92915050565b600081519050919050565b600061302882613012565b6130328185612cf2565b93506130428185602086016129ed565b61304b81612510565b840191505092915050565b60006040820190508181036000830152613070818561301d565b905061307f60208301846127da565b9392505050565b7f4f776e61626c653a2063616c6c6572206973206e6f7420746865206f776e6572600082015250565b60006130bc602083612cf2565b91506130c782613086565b602082019050919050565b600060208201905081810360008301526130eb816130af565b9050919050565b60006020828403121561310857613107612468565b5b6000613116848285016128c6565b91505092915050565b7f5361666545524332303a204552433230206f7065726174696f6e20646964206e60008201527f6f74207375636365656400000000000000000000000000000000000000000000602082015250565b600061317b602a83612cf2565b91506131868261311f565b604082019050919050565b600060208201905081810360008301526131aa8161316e565b9050919050565b7f4e487b7100000000000000000000000000000000000000000000000000000000600052603260045260246000fd5b600060408201905081810360008301526131fa818561301d565b90506132096020830184612770565b9392505050565b60008160011c9050919050565b6000808291508390505b60018511156132675780860481111561324357613242612ac9565b5b60018516156132525780820291505b808102905061326085613210565b9450613227565b94509492505050565b6000826000811461328857600181146132925761329b565b6001915050613357565b82915050613357565b50816132aa5760009050613357565b6001905060008213600181146132c757600081146132df576132f3565b8286048311156132da576132d9612ac9565b5b6132f3565b8286058312156132f2576132f1612ac9565b5b5b506001831615613301578190505b818202915061330f83613210565b925061331d8584848461321d565b92509050818504811160008213161561333957613338612ac9565b5b818405811260008212161561335157613350612ac9565b5b81810290505b949350505050565b600060ff82169050919050565b600061337782612e93565b91506133828361335f565b92506133d07f7fffffffffffffffffffffffffffffffffffffffffffffffffffffffffffffff7f80000000000000000000000000000000000000000000000000000000000000008585613270565b905092915050565b60006133e382612e93565b91507f8000000000000000000000000000000000000000000000000000000000000000820361341557613414612ac9565b5b816000039050919050565b600061342b82612e93565b915061343683612e93565b92508261344657613445612b74565b5b600160000383147f80000000000000000000000000000000000000000000000000000000000000008314161561347f5761347e612ac9565b5b828205905092915050565b7f4e487b7100000000000000000000000000000000000000000000000000000000600052600160045260246000fd5b7f416464726573733a20696e73756666696369656e742062616c616e636520666f60008201527f722063616c6c0000000000000000000000000000000000000000000000000000602082015250565b6000613515602683612cf2565b9150613520826134b9565b604082019050919050565b6000602082019050818103600083015261354481613508565b9050919050565b600081905092915050565b6000613561826129d1565b61356b818561354b565b935061357b8185602086016129ed565b80840191505092915050565b60006135938284613556565b915081905092915050565b7f416464726573733a2063616c6c20746f206e6f6e2d636f6e7472616374000000600082015250565b60006135d4601d83612cf2565b91506135df8261359e565b602082019050919050565b60006020820190508181036000830152613603816135c7565b9050919050565b60006020820190508181036000830152613624818461301d565b905092915050565b7f4e487b7100000000000000000000000000000000000000000000000000000000600052605160045260246000fdfea2646970667358221220c345a28cbf077b36de3e1933b4f24318223d3345889ad4d198bedab377e1b8bd64736f6c63430008140033",
  "linkReferences": {},
  "deployedLinkReferences": {}
}